:020000040800F2
:1000000040350120B503000841480108D91901080D
:10001000394601086917000821EB010800000000BB
:1000200000000000000000000000000061820108E4
:100030004131000800000000B1500108C1830108EF
:10004000CF030008CF030008CF030008CF03000848
:10005000CF030008CF030008CF030008CF03000838
:10006000CF030008CF030008CF030008892200084F
:1000700099220008A9220008B9220008C922000814
:10008000D9220008E9220008CF030008B93100088E
:10009000E9310008C9310008F9310008CF03000830
:1000A000CF030008CF030008CF030008CF030008E8
:1000B00021860108CF030008CF030008CF03000802
:1000C000CF030008CF030008CF030008CF030008C8
:1000D00069800108E19F0108F19F010801A0010862
:1000E000CF030008CF03000800000000CF03000882
:1000F000CF030008CF030008CF030008F92200084F
:10010000CF030008CF030008CF030008CF03000887
:10011000CF03000831900108CF030008CF03000887
:10012000092300081923000829230008392300089F
:1001300049230008CF030008CF030008CF030008BD
:1001400000000000000000000000000000000000AF
:100150005923000869230008CF030008CF030008D3
:10016000CF030008CF030008CF030008CF03000827
:10017000CF030008B9480108CF03000800000000C1
:10018000CF030008CF03000841900108CF03000807
:10019000CF030008CF030008CF030008CF030008F7
:1001A000CF030008CF030008CF03000800000000C1
:1001B000CF030008CF030008CF030008CF030008D7
:1001C000CF030008CF03000800000000000000007B
:1001D0000000000000000000CF0300080000000045
:1001E000000000000000000000000000000000000F
:1001F0000000000000000000CF030008CF0300084B
:10020000CF030008CF03000800000000CF03000860
:10021000CF030008CF030008CF030008CF03000876
:10022000CF03000800000000CF030008000000001A
:10023000CF030008CF03000800000000CF03000830
:10024000CF030008A10E0008CF030008CF03000869
:10025000CF030008CF030008CF030008CF03000836
:10026000CF030008CF030008CF030008CF03000826
:10027000CF030008CF030008CF03000800000000F0
:10028000CF030008CF030008CF030008CF03000806
:1002900000000000CF030008CF03000800000000AA
:1002A00000000000CF030008CF030008CF030008C0
:1002B000D19F0108CF030008CF0300085132000886
:1002C00061320008CF030008CF03000800F002F8F5
:1002D00000F060F80AA090E8000C82448344AAF180
:1002E0000107DA4501D100F055F8AFF2090EBAE87E
:1002F0000F0013F0010F18BFFB1A43F0010318475A
:10030000D0350200003602000A444FF0000C10F80D
:10031000013B13F0070408BF10F8014B1D1108BF83
:1003200010F8015B641E05D010F8016B641E01F823
:10033000016BF9D113F0080F1EBF10F8014BAD1C73
:100340000C1B09D16D1E58BF01F801CBFAD505E091
:1003500014F8016B01F8016B6D1EF9D59142D6D3EB
:10036000704700000023002400250026103A28BF13
:1003700078C1FBD8520728BF30C148BF0B60704717
:100380001FB522F048FB9DE8030000F0EDF91FBD0A
:1003900010B510BD00F07AFA1146FFF7F1FF1FF01B
:1003A000BFFF00F098FA03B4FFF7F2FF03BC00F0C0
:1003B000C9FA00000948804709480047FEE7FEE700
:1003C000FEE7FEE7FEE7FEE7FEE7FEE7FEE7FEE705
:1003D00004480549054A064B70470000E1840108BE
:1003E000CD02000840D500204035012040F5002016
:1003F00040F5002070B5064600F09AF9056806F150
:100400000B0020F00704B4429CBF002070BD2B46B7
:100410006A68BAB11068A04210D304F1080188429A
:100420003CBF5068586007D351681019416011688B
:10043000091B016058601460101D70BD134652689E
:10044000002AE7D12146284600F07AF90028DED1BB
:1004500070BD53EA020C00F069802DE9F04B4FF0BB
:100460000006002B1FBFB3FA83F503FA05F424FA44
:1004700005F65E4012BF1643B2FA82F502FA05F4A1
:10048000C5F120051EBF22FA05FC44EA0C04203504
:1004900056EA044C4FEA144418BF641C4FF000089D
:1004A0004FF00009904271EB030C39D3002919BFBA
:1004B000B1FA81F701FA07F6B0FA80F700FA07F609
:1004C000C7F120071EBF20FA07FC46EA0C062037BA
:1004D000B6FBF4FCA7EB0507103F07F01F0BCBF1B1
:1004E00020062CFA06F60CFA0BFB44BFB346002696
:1004F000202FA4BF5E464FF0000B5BEA060C08BF3E
:100500004FF0010B19EB0B0948EB0608ABFB027C23
:1005100006FB02CC0BFB03CCC01B71EB0C01C1E74B
:100520000B46024641464846BDE8F08B13B50843EA
:1005300018BF4FF0FF300146AFF30080BDE81C400C
:10054000704740EA010310B59B070FD1042A0DD371
:1005500010C808C9121F9C42F8D020BA19BA8842A4
:1005600001D9012010BD4FF0FF3010BD1AB1D307E3
:1005700003D0521C07E0002010BD10F8013B11F819
:10058000014B1B1B07D110F8013B11F8014B1B1B42
:1005900001D1921EF1D1184610BD032A40F23080DD
:1005A00010F0030C00F0158011F8013BBCF1020FB4
:1005B000624498BF11F801CB00F8013B38BF11F835
:1005C000013BA2F1040298BF00F801CB38BF00F84C
:1005D000013B11F0030300F02580083AC0F00880C9
:1005E00051F8043B083A51F804CBA0E80810F5E7AD
:1005F000121D5CBF51F8043B40F8043BAFF3008090
:10060000D20724BF11F8013B11F801CB48BF11F804
:10061000012B24BF00F8013B00F801CB48BF00F8D4
:10062000012B704710B5203AC0F00B80B1E818508C
:10063000A0E81850B1E81850A0E81850203ABFF4CC
:10064000F5AF5FEA027C24BFB1E81850A0E818506B
:1006500044BF18C918C0BDE810405FEA827C24BFBF
:1006600051F8043B40F8043B08BF7047D20728BF4D
:1006700031F8023B48BF11F8012B28BF20F8023B9C
:1006800048BF00F8012B704702F0FF0343EA032242
:1006900042EA024200F024B84FF000020429C0F000
:1006A000128010F0030C00F01B80CCF1040CBCF1A4
:1006B000020F18BF00F8012BA8BF20F8022BA1EBF6
:1006C0000C0100F00DB85FEAC17C24BF00F8012BDB
:1006D00000F8012B48BF00F8012B70474FF00002D3
:1006E00000B5134694469646203922BFA0E80C5028
:1006F000A0E80C50B1F12001BFF4F7AF090728BF03
:10070000A0E80C5048BF0CC05DF804EB890028BF7E
:1007100040F8042B08BF704748BF20F8022B11F0A7
:10072000804F18BF00F8012B704770477047704723
:10073000004870471808002070477047704770479E
:1007400038B504460A4600206946AFF30080002809
:1007500008BF38BD02460099204600F075F8012018
:1007600038BD012000F08AB8F8B5AFF30080054627
:1007700000200C46102000BF0646A819A0420DD943
:10078000324669460020AFF30080070008BF00F042
:1007900075F80098A04218BF0546C419FFF7C8FFB6
:1007A00005600746F01D20F007004619284600F0B6
:1007B0000AF8B44208BFF8BDA21B31463868BDE84C
:1007C000F84000F041B800210160C0E90110704715
:1007D0001020704770B50446051FFFF7A9FF006899
:1007E000002C14BF446870BD002C18BFAC423CBF45
:1007F00020466468F8D301680A18AA4218BF456009
:1008000003D12A6805461144016028684119A142B4
:100810001CBF6C6070BD6168696021680844286015
:1008200070BD10B500F00CF8006810BD10B504469E
:1008300000F006F8046010BD004870471008002062
:100840000048704710080020034640688C46002886
:1008500018BF88423CBF03464068F8D31868184464
:10086000884207D00CF1030020F00700001D411A58
:10087000521A0146081D0A60FFF7ACBF10B500F020
:1008800039F8BDE8104000F02FB870477546FFF703
:10089000D3FFAE4605006946534620F00700854663
:1008A00018B020B5FFF794FDBDE820404FF00006DA
:1008B0004FF000074FF000084FF0000BAC46ACE8DB
:1008C000C009ACE8C009ACE8C009ACE8C00921F037
:1008D00007018D46704710B50446AFF300802046EF
:1008E000BDE81040FFF75FBD002801D000F02AB836
:1008F0007047000010B5012805D0002103A000F0CA
:1009000027F8012010BD09A1F8E70000534947521C
:10091000544D454D3A204F7574206F6620686561CF
:1009200070206D656D6F7279000000003A20486597
:100930006170206D656D6F727920636F7272757072
:100940007465640001491820ABBEFEE72600020072
:1009500070B505460C460A2000E06D1C00F011F849
:1009600035B128780028F8D102E0641C00F009F8BD
:1009700014B120780028F8D1BDE870400A20AFF308
:10098000008008B569468DF800000320ABBE08BDA5
:1009900080B584B003900398006842F20001C4F26D
:1009A0000201884209D0FFE70398006842F2001173
:1009B000C4F20201884209D1FFE742F20830C4F2D2
:1009C0000200006810F4403F09D129E046F20830E7
:1009D000C5F60200006810F4403F21D0FFE70DF09B
:1009E00013F90290039840680190B0F5803F0AD057
:1009F000FFE70198B0F5003F05D0FFE70198B0F59B
:100A0000403F07D00AE00398C1880298B0FBF1F09C
:100A1000029004E002988008029000E0FFE75FE0A7
:100A20004FF4002000210BF0FBF80290039840687F
:100A30000090B0F5802F32D0FFE70098B0F5002F7E
:100A40002DD0FFE70098B0F5402F28D0FFE70098A1
:100A5000B0F5801F23D0FFE70098B0F5A01F1ED08F
:100A6000FFE70098B0F5C01F19D0FFE70098B0F578
:100A7000E01F1FD0FFE70098B0F5001F1ED0FFE772
:100A80000098B0F5101F1DD0FFE70098B0F5201FAB
:100A90001CD0FFE70098B0F5301F1BD01EE0039874
:100AA00041686FF0010000EA51410298B0FBF1F09B
:100AB000029014E002980009029010E002984009A8
:100AC00002900CE002988009029008E00298C009A8
:100AD000029004E00298000A029000E0FFE7FFE7BE
:100AE000029840080290029845F61061C0F25F013A
:100AF000884209D8FFE703980068806820F44070B6
:100B00000399096888602EE002984BF62041C0F2F4
:100B1000BE0188420AD8FFE7039800688068012177
:100B200061F309200399096888601BE0029847F681
:100B30004001C0F27D1188420AD8FFE7039800689F
:100B40008068022161F3092003990968886008E040
:100B500003980068806840F44070039909688860D1
:100B6000FFE7FFE7FFE704B080BD000000000000E2
:100B700080B582B001900198806B00900098006E63
:100B800010F0500F4AD1FFE70099086E40F4007052
:100B900008660098006800680007002821D5FFE774
:100BA0000098006811F09CFFD0B1FFE70098006842
:100BB000C0688004002812D4FFE70099086E20F472
:100BC000807008660098006EC004002806D4FFE715
:100BD0000099086E40F001000866FFE7FFE7FFE7B5
:100BE00018E000980068C068800790B9FFE7009996
:100BF000086E20F4807008660098006EC00400281B
:100C000006D4FFE70099086E40F001000866FFE790
:100C1000FFE7FFE7009803F073FE10E00098006E16
:100C2000C006002804D5FFE7009803F071FE05E038
:100C30000098806DC16C01988847FFE7FFE702B01C
:100C400080BD00000000000080B582B001900198D6
:100C5000806B00900099086E40F040000866009993
:100C6000486E40F004004866009803F051FE02B060
:100C700080BD00000000000080B582B001900198A6
:100C8000806B0090009803F03FFE02B080BD000032
:100C900080B584B002900298006811F0F1FE0090D7
:100CA0000298006811F0F4FE00284BD0FFE700988E
:100CB000002847D1FFE702980068806800F00D0027
:100CC000012809D1FFE70298006811F059FE029847
:100CD0000168032008600DE00299086E40F01000E2
:100CE00008660299486E40F00100486601208DF8C0
:100CF0000F002BE008F0E8FF0190FFE70298006882
:100D00008068C007E8B1FFE708F0DEFF0199401AEC
:100D1000032815D3FFE7029800688068C00770B108
:100D2000FFE70299086E40F0100008660299486ECD
:100D300040F00100486601208DF80F0006E0FFE753
:100D4000DCE7FFE700208DF80F00FFE79DF80F00BC
:100D500004B080BD0000000080B586B00490049807
:100D6000006811F095FE002840F09280FFE704989B
:100D7000006880683F21C8F2000108420ED0FFE7FA
:100D80000499086E40F0100008660499486E40F01F
:100D90000100486601208DF817007DE00498006886
:100DA00011F00AFE08F090FF0390049801680120FA
:100DB00042F20002C4F20202914201900CD0FFE71D
:100DC000049800684DF60071CBF6FD710844B0FA46
:100DD00080F040090190FFE70198C10746F200301A
:100DE000C5F6020000291CBF42F20030C4F2020026
:100DF00011F016FE02900498006842F20011C4F24D
:100E00000201884206D1FFE742F20000C4F202006C
:100E1000009003E0049800680090FFE700980499B0
:100E20000968884203D0FFE7029880BBFFE7FFE72D
:100E3000049800680068C00740BBFFE7049800689A
:100E400011F026FE28B9FFE70498006811F0B4FD00
:100E5000FFE708F039FF0399401A032815D3FFE78D
:100E6000049800680068C00770B9FFE70499086E2D
:100E700040F0100008660499486E40F00100486692
:100E800001208DF8170007E0FFE7D1E7FFE7FFE754
:100E900000208DF81700FFE79DF8170006B080BD11
:100EA00080B547F2AC40C2F2000005F0B1F980BD58
:100EB00080B540F60000C5F602000122114608F098
:100EC000EBFE80BD0000000080B540F60000C5F6D6
:100ED00002000121002208F0DFFE80BD00000000BA
:100EE00080B588B000208DF81E00FFF7EDFF802050
:100EF000049000F0D9FA5520059000F0D5FA059835
:100F000000F0D2FA8DF81E00FFF7D2FF962006906F
:100F100002F02EF9FFF7D8FF049800F0C5FA059803
:100F200000F0C2FA059800F0BFFA8DF81E00FFF736
:100F3000BFFF069802F01CF9FFF7C6FF7E20B6211E
:100F400000F022FBFFF7B4FF502002F0FDF8FFF79E
:100F5000BBFF049800F0A8FA059800F0A5FA0598E0
:100F600000F0A2FA8DF81E00FFF7A2FF069802F02B
:100F7000FFF8FFF7A9FF049800F096FA059800F033
:100F800093FA059800F090FA8DF81E00FFF790FF95
:100F9000069802F0EDF89DF81E001E2804D0FFE729
:100FA000FF208DF81F005CE000208DF81D00FFE79A
:100FB0009DF81D00052850DCFFE7FFF785FF9DF831
:100FC0001D0000EB400240F20000C2F2000003905E
:100FD0008118805C497800F0D7FAFFF769FF962006
:100FE000029002F0C5F8FFF76FFF03989DF81D10FF
:100FF00001EB4101405C40F0800000F055FA5520C3
:10100000019000F051FA019800F04EFA8DF81E00A0
:10101000FFF74EFF029802F0ABF803999DF81E000F
:101020009DF81D2002EB42021144497888420DD000
:10103000FFE79DF81D0000EB400140F20000C2F206
:101040000000084480788DF81F000AE0FFE79DF853
:101050001D0001308DF81D00AAE700208DF81F004B
:10106000FFE79DF81F0008B080BD000000000000F1
:1010700080B540F60000C5F602000821012208F004
:101080000BFE80BD0000000080B540F60000C5F6F4
:1010900002000821002208F0FFFD80BD00000000D2
:1010A00080B586B0002002908DF81600FFF7ECFFA7
:1010B00002980DF11601039100F0E2F9FFF7D8FF55
:1010C0009620049002F054F8FFF7DEFF029803998F
:1010D00000F0D6F9FFF7CCFF049802F049F8FFF7CB
:1010E000D3FF1420B62100F04FFAFFF7C1FF5020C4
:1010F00002F02AF8FFF7C8FF0298039900F0C0F940
:10110000FFF7B6FF049802F033F8FFF7BDFF02982F
:10111000039900F0B5F9FFF7ABFF049802F028F847
:101120009DF816000F2804D0FFE7FF208DF8170068
:1011300053E000208DF81500FFE79DF81500052805
:1011400047DCFFE7FFF7A0FF9DF8150000EB40022A
:1011500040F22450C2F2000001908118805C49786E
:1011600000F012FAFFF784FF9620009002F000F8DA
:10117000FFF78AFF01989DF8151001EB4101405CD3
:101180000DF1160100F07CF9FFF772FF009801F0F5
:10119000EFFF01999DF816009DF8152002EB420221
:1011A0001144497888420DD0FFE79DF8150000EB07
:1011B000400140F22450C2F20000084480788DF8CB
:1011C00017000AE0FFE79DF8150001308DF81500C3
:1011D000B3E700208DF81700FFE79DF8170006B071
:1011E00080BD00000000000080B584B003900020A6
:1011F00002900190FFF768FE922000F055F912204E
:1012000001A90091062200F017F9FFF751FE9DF8A1
:1012100004009DF8051040EA0120039908849DF818
:1012200006009DF8071040EA0120039948849DF8C4
:1012300008009DF8091040EA01200399888440F2D3
:101240001400C2F2000090ED000A0399B1F92020C9
:1012500001EE102AB8EEC11A20EE010A81ED010A52
:1012600090ED000A0399B1F9222001EE102AB8EEA0
:10127000C11A20EE010A81ED020A90ED000A0398DE
:10128000B0F9241001EE101AB8EEC11A20EE010ACE
:1012900080ED030AFFF718FEA22000F005F900997F
:1012A0002220022200F0C8F8FFF702FE9DF8040099
:1012B0009DF80510C00040EA5110039988850398F5
:1012C000B0F92C00B0F5806F06DBFFE70399888D3D
:1012D000A0F500608885FFE70398B0F92C1000EEB8
:1012E000101AB8EEC01AB4EE002AB3EE070AA1EE47
:1012F000020A80ED070AFFF7C7FE002001A90822B5
:1013000000F09AF8FFF7B4FE9DF804000F2819D1F9
:10131000FFE79DF806009DF8071040EA01200399B9
:10132000C8849DF808009DF8091040EA012003993F
:1013300008859DF80A009DF80B1040EA01200399EA
:101340004885FFE740F21800C2F2000090ED001A55
:101350000399B1F9262000EE102AB8EEC02A91EDCB
:101360000C0A91EE020A81ED040A90ED001A03992D
:10137000B1F9282000EE102AB8EEC02A91ED0D0A2E
:1013800091EE020A81ED050A90ED001A0398B0F97A
:101390002A1000EE101AB8EEC02A90ED0E0A91EE57
:1013A000020A80ED060A04B080BD000000000000C3
:1013B00080B582B000208DF80700FFE7FFF790FDB1
:1013C00001469DF8070008438DF80700FFF768FE07
:1013D00001469DF8070008438DF80700022001F040
:1013E000B3FEFFE79DF807000028E7D1FFE740F6CE
:1013F0007000C2F2000000F003F802B080BD0000EF
:1014000081B0009000994CF29F60CBF62A300863BF
:1014100000994EF66710CBF6EB204863009942F630
:10142000BA50C3F6B520886300990120087001B056
:10143000704700000000000080B584B08DF80F00F8
:1014400002918DF807209DF80F0040F0800000F019
:101450002BF8FFE79DF8070070B1FFE7552000F07B
:1014600023F8029908700298013002909DF8070055
:1014700001388DF80700EDE704B080BD00000000E2
:1014800080B582B08DF8070000919DF8070040F00C
:10149000800000F009F8552000F006F80099087067
:1014A00002B080BD0000000080B582B08DF807005A
:1014B00000208DF8060069466420086048F2782014
:1014C000C2F200000DF107010DF1060201230DF03B
:1014D000FBFE9DF8060002B080BD00000000000089
:1014E00080B582B08DED010ADDED010A45F2701084
:1014F000C2F200009FED220A13F0C2FBFFE745F2A3
:101500007010C2F2000090ED0A0A90ED151AB4EEC8
:10151000410AF1EE10FA07DDFFE745F27011C2F261
:101520000001486D88621BE045F27010C2F20000B5
:1015300090ED0A0A90ED151AB1EE411AB4EE410A87
:10154000F1EE10FA0BDAFFE745F27010C2F200007C
:1015500090ED150AB1EE400A80ED0A0AFFE7FFE7B9
:10156000FFE745F27010C2F2000090ED0A0ABCEEEF
:10157000C00A10EE100A10F033FA02B080BD00BFAE
:10158000000020420000000080B582B08DF8070006
:101590008DF806109DF80700FFF786FF9DF80600FE
:1015A000FFF782FF02B080BD80B582B047F25430B1
:1015B000C2F200000190002140F2FF7202F048F9EF
:1015C000019840F23411C2F20041022203F004FDFE
:1015D00002B080BD0000000080B5A0B000200690E1
:1015E00018901990022104911A91012105911B91E3
:1015F0001C901D9047F6B430C2F20000029018A96A
:1016000007F02EF8049A069B029869460B60114673
:1016100007F0B2F80599069A029806F031FF029891
:1016200008F0FAF80499069810901190129113910D
:101630001490159047F65440C2F20000039010A990
:1016400007F00EF8049A069B039869460B60114652
:1016500007F092F8069A0398102106F011FF0398FC
:1016600007F0DEF803980E22114607F0B5F803984C
:1016700008F0D2F8049A05990698089009900A9201
:101680000B910C900D9047F6F440C2F200000790C9
:1016900008A906F0E5FF049A069B079869460B60C7
:1016A000114607F069F80599069A079806F0E8FED2
:1016B000079808F0B1F820B080BD000000000000DD
:1016C000704700000000000080B548F29830C2F278
:1016D00000000C210EF040FE80BD00000000000064
:1016E00080B582B040F6B830C2F20000009009F038
:1016F000E7FF00984068019041F20001C4F2010147
:10170000086820F00100086001984BF2C532C9F268
:10171000A212A0FB0220000C41F20C02C4F2010252
:101720001060086840F00100086040F22401C2F235
:10173000004101F1880248F2E430C2F2000088233F
:1017400018F066FC40F20001C2F2004101F1120201
:1017500048F23460C2F20000122318F059FC02B0C3
:1017600080BD000000000000FFE7FEE70000000071
:1017700080B596B0159000221192149240F2C440A8
:10178000C2F20000129040F2E431C2F20001109166
:1017900001F02EFC1E2013901EF08AFE1099119A63
:1017A0001298383101F024FC13981EF081FE109934
:1017B000119A1298703101F01BFC13981EF078FEFC
:1017C0001099119A1298A83101F012FC13981EF08A
:1017D0006FFEFFE71EF0A0FE149040F2EE70C2F222
:1017E0000000C07A032809D0FFE740F2EE70C2F291
:1017F0000000C07A012840F0DA80FFE740F2600084
:10180000C2F20000807BC007002861D1FFE740F2F0
:10181000C440C2F200000B9040F2E431C2F2000179
:101820000A91B2EE041A8DED0C1AF7EE001ACDED06
:101830000D1A9FED922A8DED0E2AB0EE420AF0EEBF
:10184000420A01F0D9FA0A990B989DED0C1ADDEDC8
:101850000D1A9DED0E2A3831B0EE420AF0EE420A22
:1018600001F0CAFA0A990B989DED0C1ADDED0D1ADC
:101870009DED0E2A7031B0EE420AF0EE420A01F000
:10188000BBFA0A990B989DED0C1ADDED0D1A9DED32
:101890000E2AA831B0EE420AF0EE420A01F0ACFA8C
:1018A00040F2F440C2F200000F904FF4007141602A
:1018B000002180F8281080F8291080F82A1080F87C
:1018C0002B1080F82C1080F82D101CF07DFA6DE0A4
:1018D00040F26000C2F20000089090ED6B2A40F2E6
:1018E000C440C2F20000069040F2E431C2F20001AE
:1018F0000591DFED621ACDED071AB0EE610AF0EE48
:10190000610AB0EE611A01F077FA05990698DDEDEB
:10191000071A089A92ED6A2A3831B0EE610AF0EEA1
:10192000610AB0EE611A01F067FA05990698DDEDDB
:10193000071A089A92EDD12A7031B0EE610AF0EEE2
:10194000610AB0EE611A01F057FA05990698DDEDCB
:10195000071A089A92EDD22AA831B0EE610AF0EE89
:10196000610AB0EE611A01F047FA089940F2F440BA
:10197000C2F2000009904FF40072426091F8A52174
:1019800080F8282091F8A42180F8292091F841239B
:1019900080F82A2091F8401380F82B10002180F85D
:1019A0002C1080F82D101CF00FFAFFE75CE040F2DD
:1019B000C440C2F20000029040F2E431C2F20001E1
:1019C00001919FED2E2A8DED032AB0EE420AF0EE32
:1019D000420AB0EE421AF0EE421A01F00DFA0199F5
:1019E00002989DED032A3831B0EE420AF0EE420A29
:1019F000B0EE421AF0EE421A01F0FEF90199029897
:101A00009DED032A7031B0EE420AF0EE420AB0EECC
:101A1000421AF0EE421A01F0EFF9019902989DED99
:101A2000032AA831B0EE420AF0EE420AB0EE421AA2
:101A3000F0EE421A01F0E0F940F2F440C2F2000088
:101A400004904FF400714160002180F8281080F864
:101A5000291080F82A1080F82B1080F82C1080F8BC
:101A60002D101CF0B1F9FFE79DF85000C00708B930
:101A7000FFE7FFE701201EF01BFDABE600000000C2
:101A800084B08DF80F000291ADF806209DF80F008C
:101A90000146009123281DD80099DFE801F01213B8
:101AA0001415161B1B1B1B1B1B1B1B1B1B1B1B1B98
:101AB0001B1B1B1B1B1B1B1B1B1B1B1B1B1B17187D
:101AC000191A08E007E006E005E004E003E002E0A0
:101AD00001E000E0FFE7002004B0704700000000D4
:101AE000002070470000000080B582B047F2780007
:101AF000C2F20000009045F60061C2F2000100222F
:101B0000019218F0F1FF009845F20061C2F2000165
:101B100018F0CAFF019802B080BD0000000000006C
:101B200080B584B003900291039947F27800C2F225
:101B30000000019018F0B8FF019818F059FF00203C
:101B400004B080BD0000000083B0029001918DF8C8
:101B5000032000208DF802009DF9020003B07047B9
:101B600080B582B001901CF00BF9019880ED010A5C
:101B7000019890ED010AB3EE061AB4EE410AF1EEB7
:101B800010FA80F2A780FFE745F2D410C2F20000FD
:101B90000168013101600068632808D8FFE741F659
:101BA0003801C4F200014FF47A70086091E045F208
:101BB000D410C2F20000006865280FD3FFE745F299
:101BC000D410C2F200000068C72807D8FFE741F62A
:101BD0003801C4F200010020086079E045F2D41019
:101BE000C2F200000068C92811D3FFE745F2D41003
:101BF000C2F20000006880084A2808D8FFE741F6D2
:101C00003801C4F200014FF47A7008605FE045F2D9
:101C1000D410C2F200000068B0F5967F10D9FFE73B
:101C200045F2D410C2F2000000680009182807D855
:101C3000FFE741F63801C4F200010020086045E0EA
:101C400045F2D410C2F200000068B0F5C87F11D987
:101C5000FFE745F2D410C2F20000006880087C283B
:101C600008D8FFE741F63801C4F200014FF47A705A
:101C700008602AE045F2D410C2F200000068B0F516
:101C8000FA7F10D9FFE745F2D410C2F200000068D5
:101C9000C0084A2807D8FFE741F63801C4F200011E
:101CA0000020086010E045F2D410C2F20000006885
:101CB000B0F57A7F07D9FFE745F2D411C2F20001EF
:101CC00000200860FFE7FFE7FFE7FFE7FFE7FFE728
:101CD000FFE712E0019890ED010AB3EE061AB4EEA8
:101CE000410AF1EE10FA07DBFFE741F63801C4F2D2
:101CF000000100200860FFE7FFE702B080BD0000A0
:101D000080B586B0059040F2EE70C2F20000B0F9E6
:101D1000040000EE100AB8EEC01A9FED7F2A9FED76
:101D20007F0AA1EE020A059880EDD60A059890ED8B
:101D3000D60A9FED7B1AB4EE410AF1EE10FA0ADBE7
:101D4000FFE7059890EDD60A9FED781A30EE010A6C
:101D500080EDD60A15E0059890EDD60A9FED711A30
:101D6000B4EE410AF1EE10FA0ADCFFE7059890EDB7
:101D7000D60A9FED6D1A30EE010A80EDD60AFFE714
:101D8000FFE70598D0EDD60A40F6F020C2F2000039
:101D900003909FED670A8DED000A12F071FF039822
:101DA00090ED0A0A40F67C11C2F200010291D1EDD9
:101DB000050A643012F064FF9DED000A059890ED6D
:101DC000531A90EDBA2A71EE420A40F6C410C2F2DC
:101DD0000000019012F054FF019A0299039892EDCD
:101DE0000A0AB1EE400A059B83ED5C0A92ED0A0AED
:101DF000B1EE400A059A82EDC30A91ED030A9FED08
:101E00004D2A30EE020A9FED4C1A20EE410A059A47
:101E100082ED5F0A91ED030A30EE020A20EE010A1C
:101E2000059981EDC60AD0F88C10059AC2F8781190
:101E300090ED230AB1EE400A059880EDC50A059899
:101E4000D0ED420A90ED450A40F62820C2F200008B
:101E5000049012F015FF0498059981ED600A059928
:101E6000D1EDA90A91EDAC0A643012F009FF059892
:101E700080EDC70A05990020C4F22010C1F8400285
:101E80000599C1F8A4000599D1F88001C1F8B801FD
:101E90000599D1F81C03C1F85403059890ED5D0A2B
:101EA00090ED5E1A30EE010A80ED6C0A059890ED17
:101EB000C40A90EDC51A30EE010A80EDD30A0598E8
:101EC00090ED5B0A90ED5C1A30EE010A80ED6D0A30
:101ED000059890EDC20A90EDC31A30EE010A80ED2C
:101EE000D40A05984078A0B9FFE705990020C1F809
:101EF000B4010599C1F850030599C1F8B8010599D5
:101F0000C1F854030599C1F8B0010599C1F84C0313
:101F1000FFE706B080BD00BFE9A28B3E0000008055
:101F200000003443000034C30000B4430000B4C3D5
:101F300000000000CDCCCC3E000048420000000074
:101F400080B586B0059040F62820C2F200000190CE
:101F500040F28052C2F2000202920121049113F079
:101F60002FF80198029A0499643013F029F8049923
:101F700040F6F020C2F20000039040F29C52C2F200
:101F8000000213F01DF803980499643040F2B8522F
:101F9000C2F2000213F014F8049940F6C410C2F221
:101FA000000040F26452C2F2000213F009F806B0D9
:101FB00080BD00000000000080B584B0039040F2B6
:101FC0006000C2F20000FFF7BBFFFFE71EF0A4FABB
:101FD00040F6AC01C2F200010291086040F26000DC
:101FE000C2F200000190FFF7BBFD019812F028FB40
:101FF00001980FF075FE01981CF096FD019810F005
:1020000067FF019812F0D8F8019816F06DFF01985B
:102010001CF0DAFF019811F023F9019810F0DCFFB1
:102020000198FFF76DFE01980FF0A2FE02980121C2
:102030001EF052FACAE7000080B584B003908DED1F
:10204000020AADF806100020009003980078C0073F
:1020500000BBFFE70399C88808810398B0F9061010
:1020600000EE101AB8EEC00ABDF8061001EE101A04
:10207000B8EEC11A9DED022A21EE021A80EE010A85
:102080009FED4D1A20EE010A80ED030A039901200D
:102090000870FFE70399B1F90600B1F90810401A7A
:1020A00000EE100AB8EEC00A8DED000A9DED000AA0
:1020B000BDF8060001EE100AB8EEC11AB6EE002A0D
:1020C00021EE021AB4EE410AF1EE10FA1ADDFFE732
:1020D0009DED000ABDF8060001EE100AB8EEC11A27
:1020E00030EE410A9DED022A21EE021A80EE011A1D
:1020F000039890ED030A9FED302AA1EE020A80EDCD
:10210000030A45E09DED000ABDF80600404201EEDD
:10211000100AB8EEC11AB6EE002A21EE021AB4EE89
:10212000410AF1EE10FA1ADAFFE79DED000ABDF858
:10213000060001EE100AB8EEC11A30EE010A9DED5C
:10214000022A21EE021A80EE011A039890ED030A8A
:102150009FED192AA1EE020A80ED030A17E09DED1A
:10216000000ABDF8060001EE100AB8EEC11A9DED96
:10217000022A21EE021A80EE011A039890ED030A5A
:102180009FED0D2AA1EE020A80ED030AFFE7FFE7AB
:102190000399C8880881039890ED030ADFED070AC8
:1021A0009FED071A01F03CFA039880ED030A0398AB
:1021B00090ED030A04B080BD0000B443000034C3B6
:1021C000000034430000000080B584B00390029109
:1021D00001920398006801998968884201D0FFE75D
:1021E0004BE002988079019908770298017840784D
:1021F00040EA01200199488202988178C07840EA3B
:1022000001200199088202980179407940EA012071
:102210000199C881019800780146009140B1FFE71B
:102220000098012810D0FFE70098022818D023E07A
:1022300001980C30B7EE000A4FF40051FFF7FCFE96
:10224000019880ED060A18E001980C309FED0D0A08
:102250004FF40051FFF7F0FE019880ED060A0CE004
:1022600001980C309FED060A4FF40051FFF7E4FE91
:10227000019880ED060A00E0FFE704B080BD00BFD2
:10228000000010422CA0994180B547F22450C2F2C0
:10229000000003F0BDFF80BD80B547F29C50C2F244
:1022A000000003F0B5FF80BD80B547F21460C2F2B4
:1022B000000003F0ADFF80BD80B547F20470C2F2AC
:1022C000000003F0A5FF80BD80B547F27C70C2F22C
:1022D000000003F09DFF80BD80B547F6E400C2F228
:1022E000000003F095FF80BD80B547F65C10C2F298
:1022F000000003F08DFF80BD80B547F6D410C2F218
:10230000000003F085FF80BD80B547F64C20C2F287
:10231000000003F07DFF80BD80B547F6C420C2F207
:10232000000003F075FF80BD80B547F63C30C2F277
:10233000000003F06DFF80BD80B547F28C60C2F2F3
:10234000000003F065FF80BD80B547F2F470C2F273
:10235000000003F05DFF80BD80B547F66C00C2F25F
:10236000000003F055FF80BD80B547F23440C2F253
:10237000000003F04DFF80BD83B002900298016819
:1023800001201022C4F202029142009000F0A380CA
:10239000FFE70298016801202822C4F2020291425C
:1023A000009000F09880FFE7029801680120402229
:1023B000C4F202029142009000F08D80FFE7029883
:1023C000016801205822C4F202029142009000F0FC
:1023D0008280FFE70298016801207022C4F20202A5
:1023E0009142009077D0FFE702980168012088228F
:1023F000C4F20202914200906DD0FFE7029801689A
:102400000120A022C4F202029142009063D0FFE7B3
:10241000029801680120B822C4F2020291420090A1
:1024200059D0FFE702980168012040F21042C4F23F
:102430000202914200904ED0FFE70298016801200D
:1024400040F22842C4F202029142009043D0FFE7DA
:1024500002980168012040F24042C4F20202914217
:10246000009038D0FFE702980168012040F25842FE
:10247000C4F20202914200902DD0FFE70298016859
:10248000012040F27042C4F202029142009022D038
:10249000FFE702980168012040F28842C4F202027C
:1024A0009142009017D0FFE702980168012040F2A6
:1024B000A042C4F20202914200900CD0FFE70298C1
:1024C00000684FF64831CBF6FD710844B0FA80F051
:1024D00040090090FFE70098C00740B3FFE702986B
:1024E000007810384AF6AB21CAF6AA21A0FB0110E9
:1024F00000090190019800F0070142F64C50C0F627
:102500000200405C0299C8650198042807D3FFE7E0
:1025100002990868042262F30900886506E00299BE
:10252000086840F2FF3290438865FFE705E00299B2
:10253000086820F0FF008865FFE70298806D03B00F
:10254000704700000000000084B00390039800680A
:10255000019003980168012045F20842C5F6020285
:10256000914200904ED0FFE703980168012045F2A8
:102570001C42C5F602029142009043D0FFE7039847
:102580000168012045F23042C5F6020291420090F6
:1025900038D0FFE703980168012045F24442C5F6B0
:1025A0000202914200902DD0FFE7039801680120BC
:1025B00045F25842C5F602029142009022D0FFE750
:1025C00003980168012045F26C42C5F6020291426F
:1025D000009017D0FFE703980168012045F2804280
:1025E000C5F60202914200900CD0FFE70398006804
:1025F0004AF66C31CAF2FD710844B0FA80F0400925
:102600000090FFE70098C00710B3FFE70398007839
:1026100008384CF6CD41CCF6CC41A0FB01100009A6
:102620000290029945F60000C5F6020000EB810019
:1026300003990866039945F68000C5F602004866CE
:10264000029800F01F01012088400399886635E058
:102650000398007810384AF6AB21CAF6AA21A0FBED
:10266000011000090290019840F2B841C4F2020141
:1026700088420CD8FFE7019840F21041C4F20201F1
:10268000884204D3FFE7029808300290FFE70299DE
:1026900040F60000C4F2020000EB810003990866D6
:1026A000039940F68000C4F202004866029800F0E8
:1026B0001F010120884003998866FFE704B0704736
:1026C00083B002900298007901900198002800F0F0
:1026D0008A80FFE70198082800F28580FFE70298CA
:1026E0000168012045F20842C5F6020291420090BD
:1026F0004ED0FFE702980168012045F21C42C5F662
:1027000002029142009043D0FFE702980168012045
:1027100045F23042C5F602029142009038D0FFE700
:1027200002980168012045F24442C5F60202914236
:1027300000902DD0FFE702980168012045F2584231
:10274000C5F602029142009022D0FFE7029801688C
:10275000012045F26C42C5F602029142009017D06A
:10276000FFE702980168012045F28042C5F60202A7
:10277000914200900CD0FFE7029800684AF66C3155
:10278000CAF2FD710844B0FA80F040090090FFE7FA
:102790000098C00780B1FFE7019945F6FC00C5F637
:1027A000020000EB81000299C866029945F64010CC
:1027B000C5F6020008670FE0019940F6FC00C4F27C
:1027C000020000EB81000299C866029940F64010B1
:1027D000C4F202000867FFE70198411E012088400B
:1027E00002994867FFE703B070470000000000004F
:1027F00085B0049000208DF80F000498806918BB04
:10280000FFE70498806A029003281BD80299DFE84A
:1028100001F0020D0218049890F82F00C00720B1B3
:10282000FFE701208DF80F00FFE70CE00498C06A75
:10283000B0F1C07F04D1FFE701208DF80F00FFE762
:1028400001E000E0FFE747E004988069B0F5005F31
:1028500026D1FFE70498806A019003281ED80199C9
:10286000DFE801F00206021101208DF80F0016E0EA
:10287000049890F82F00C00720B1FFE701208DF8E1
:102880000F00FFE70BE00498C06AB0F1C07F04D1ED
:10289000FFE701208DF80F00FFE700E0FFE71AE0F7
:1028A0000498806A0090032804D3FFE70098032867
:1028B00004D00EE001208DF80F000BE0049890F892
:1028C0002F00C00720B1FFE701208DF80F00FFE7C0
:1028D00000E0FFE7FFE7FFE79DF80F0005B0704756
:1028E00089B008900791069205930898806D04902E
:1028F0000898806D03900898016801201022C4F2A6
:1029000002029142029000F00381FFE708980168FB
:1029100001202822C4F202029142029000F0F880C5
:10292000FFE70898016801204022C4F202029142A8
:10293000029000F0ED80FFE708980168012058221E
:10294000C4F202029142029000F0E280FFE7089890
:10295000016801207022C4F202029142029000F04C
:10296000D780FFE70898016801208822C4F202029C
:102970009142029000F0CC80FFE7089801680120A6
:10298000A022C4F202029142029000F0C180FFE74F
:10299000089801680120B822C4F202029142029014
:1029A00000F0B680FFE708980168012040F210426D
:1029B000C4F202029142029000F0AA80FFE7089858
:1029C0000168012040F22842C4F2020291420290C2
:1029D00000F09E80FFE708980168012040F2404225
:1029E000C4F202029142029000F09280FFE7089840
:1029F0000168012040F25842C4F202029142029062
:102A000000F08680FFE708980168012040F27042DC
:102A1000C4F20202914202907AD0FFE7089801685E
:102A2000012040F28842C4F20202914202906FD02B
:102A3000FFE708980168012040F2A042C4F20202B8
:102A40009142029064D0FFE708980168012040F2AB
:102A5000B842C4F202029142029059D0FFE70898AE
:102A60000168012045F20842C5F602029142029037
:102A70004ED0FFE708980168012045F21C42C5F6D8
:102A800002029142029043D0FFE7089801680120BA
:102A900045F23042C5F602029142029038D0FFE77B
:102AA00008980168012045F24442C5F602029142AD
:102AB00002902DD0FFE708980168012045F25842A6
:102AC000C5F602029142029022D0FFE70898016801
:102AD000012045F26C42C5F602029142029017D0E5
:102AE000FFE708980168012045F28042C5F602021E
:102AF000914202900CD0FFE7089800684AF66C31CA
:102B0000CAF2FD710844B0FA80F040090290FFE774
:102B10000298C00770B1FFE70898416E806E486068
:102B20000898C06E28B1FFE70898016F406F4860B1
:102B3000FFE7FFE70898016801201022C4F20202B3
:102B40009142019000F0A380FFE7089801680120FE
:102B50002822C4F202029142019000F09880FFE71F
:102B60000898016801204022C4F2020291420190BB
:102B700000F08D80FFE70898016801205822C4F218
:102B800002029142019000F08280FFE708980168FC
:102B900001207022C4F202029142019077D0FFE737
:102BA0000898016801208822C4F202029142019033
:102BB0006DD0FFE7089801680120A022C4F202024C
:102BC0009142019063D0FFE7089801680120B82284
:102BD000C4F202029142019059D0FFE708980168BF
:102BE000012040F21042C4F20202914201904ED004
:102BF000FFE708980168012040F22842C4F202026F
:102C00009142019043D0FFE708980168012040F20B
:102C10004042C4F202029142019038D0FFE7089886
:102C20000168012040F25842C4F202029142019030
:102C30002DD0FFE708980168012040F27042C4F2ED
:102C400002029142019022D0FFE70898016801201A
:102C500040F28842C4F202029142019017D0FFE78D
:102C600008980168012040F2A042C4F20202914299
:102C700001900CD0FFE7089800684FF64831CBF67A
:102C8000FD710844B0FA80F040090190FFE7019817
:102C9000C00750B3FFE70898C06D00F01F013F2048
:102CA00088400499886008980168086820F48020AA
:102CB0000860059808990968486008988068402865
:102CC00009D1FFE70698089909688860079808996C
:102CD0000968C86008E0079808990968886006983C
:102CE00008990968C860FFE782E008980168012038
:102CF00045F20842C5F60202914200904ED0FFE72D
:102D000008980168012045F21C42C5F60202914272
:102D1000009043D0FFE708980168012045F2304257
:102D2000C5F602029142009038D0FFE7089801688A
:102D3000012045F24442C5F60202914200902DD096
:102D4000FFE708980168012045F25842C5F60202E3
:102D50009142009022D0FFE708980168012045F2D7
:102D60006C42C5F602029142009017D0FFE7089826
:102D70000168012045F28042C5F6020291420090AE
:102D80000CD0FFE7089800684AF66C31CAF2FD7172
:102D90000844B0FA80F040090090FFE70098C007AF
:102DA00020B3FFE70898C06D00F01F0101208840A4
:102DB00003994860059808990968486008988068F0
:102DC000402809D1FFE706980899096888600798A4
:102DD00008990968C86008E0079808990968886038
:102DE000069808990968C860FFE700E0FFE7FFE779
:102DF00009B070470000000080B590B00F900E91B0
:102E00008DED0D0ACDED0C0A8DED0B1ACDED0A1AE4
:102E10008DED092A0E980078002877D1FFE79DED07
:102E20000D0A0E9890ED031AF1EE410A10201DF0E4
:102E30003FFAADF822009DED0C0A0E9890ED041AB1
:102E4000F1EE410A0C2002901DF032FA0146029880
:102E5000ADF820109DED090A0E9991ED051AF1EEDD
:102E6000410A1DF025FA01460298ADF81E109DEDAD
:102E70000B0ADFED5D0ACDED010A9FED5C1A1DF036
:102E800017FADDED010A01460298ADF81C109DED20
:102E90000A0AB1EE041A1DF00BFAADF81A000E98EA
:102EA00040680F9948609DF823000F9981F8280029
:102EB0009DF822000F9981F82900BDF82000000933
:102EC0000F9981F82A00BDF820109DF81D0040EAF6
:102ED00001100F9981F82B009DF81C000F9981F8C3
:102EE0002C00BDF81A0000090F9981F82D00BDF8DB
:102EF0001A109DF81F0040EA01100F9981F82E006A
:102F00009DF81E000F9981F82F0068E00E98007858
:102F1000012833D1FFE70DA805900CA804900E9866
:102F2000406800F580700F994860059800780F9907
:102F300081F82800059840780F9981F829000598B4
:102F400080780F9981F82A000598C0780F9981F848
:102F50002B00049800780F9981F82C000498407891
:102F60000F9981F82D00049880780F9981F82E0030
:102F70000498C0780F9981F82F002FE00E98007800
:102F800002282AD1FFE70CA803900E98406800F5AC
:102F900000700F994860039800780F9981F8280015
:102FA000039840780F9981F82900039880780F9949
:102FB00081F82A000398C0780F9981F82B000F99A7
:102FC000002081F82C000F9981F82D000F9981F8CD
:102FD0002E000F9981F82F00FFE7FFE7FFE70F981A
:102FE0001AF0F2FE10B080BD000000000000FA43AD
:102FF00080B584B0039002918DF807200298406854
:10300000039948600399FF2081F82800039981F80B
:103010002900039981F82A00039981F82B0003996C
:1030200081F82C00039981F82D00039981F82E0076
:103030009DF807000146009140B1FFE70098012884
:1030400009D0FFE7009802280AD00EE00399FC207F
:1030500081F82F000AE00399FD2081F82F0005E098
:103060000399FE2081F82F0000E0FFE703981AF093
:10307000ABFE04B080BD000080B584B00390029127
:1030800001920398006801998968884201D0FFE79E
:1030900054E0029800780009019948760298417836
:1030A000807840EA0120019948830299C87809791B
:1030B000000140EA11100199888302980179407952
:1030C00001F00F0140EA01200199C8830199C88BE2
:1030D000D1ED050AB1EE600A0C2100911DF064FFEC
:1030E000019880ED0A0A0199488BD1ED030AB1EEEF
:1030F000600A10211DF058FF0099019880ED080A20
:10310000019A908BD2ED040AB1EE600A1DF04CFFDB
:10311000019880ED090A0298807900EE100AB8EE55
:10312000400A019880ED0B0A0298C07900EE100A5F
:10313000B8EE400A019880ED0C0AFFE704B080BDAC
:10314000704700000000000080B582B0019006F0DA
:10315000BBFD0090FFE706F0B7FD0099401A01990A
:10316000884201D2FFE7F6E702B080BD0000000010
:1031700080B582B001900EF017FC0090FFE70EF0D2
:1031800013FC0099401A0199884201D2FFE7F6E743
:1031900002B080BD0000000080B582B00190FFE762
:1031A00001201DF085F9FBE781B0EFF3108072B6C6
:1031B0000090FFE7FEE7000080B547F6B430C2F2AA
:1031C000000005F0DDFC80BD80B547F6B430C2F2EA
:1031D000000005F0D5FC80BD82B00190009102B0E6
:1031E000704700000000000080B547F65440C2F26E
:1031F000000005F0C5FC80BD80B547F65440C2F222
:10320000000005F0BDFC80BD80B584B00390029144
:103210000398029940F2E432C2F200020192FFF7F1
:103220002BFF019A039802993832FFF725FF019A84
:10323000039802997032FFF71FFF019A03980299D1
:10324000A832FFF719FF04B080BD000000000000A5
:1032500080B547F6F440C2F2000005F091FC80BD55
:1032600080B547F6F440C2F2000005F089FC80BD4D
:1032700080B584B0039002910398029940F2200235
:10328000C2F200020192FEF79FFF019A0398029991
:103290002032FEF799FF04B080BD0000000000005E
:1032A00084B002900298406B009002980068D0F8B9
:1032B00084004FF6FC718843009940EA810002992E
:1032C0000968C1F8840002980068D0F8840020F4EE
:1032D0007F00029A1168926B40EA0240C1F88400B4
:1032E0000298816B00980844009002980068D0F81A
:1032F00088006FF38F00009940EA81000299096805
:10330000C1F8880002980068D0F8880020F4FE0018
:10331000029A1168D26B40EA0240C1F88800029814
:10332000C16B009800EB4100009002980068D0F853
:10333000A0006FF38F00009940EA810002990968AC
:10334000C1F8A00002980068D0F8A00020F4FE00A8
:10335000029A1168126C40EA0240C1F8A00002997A
:10336000086C496C009A00FB0120009002980068EC
:10337000D0F8B0006FF38F00009940EA8100029905
:103380000968C1F8B00002980068D0F8B00020F4D5
:10339000FE00029A1168926C40EA0240C1F8B00047
:1033A0000299886CC96C009A00FB01200090029879
:1033B0000068D0F8AC006FF38F00009940EA8100FC
:1033C00002990968C1F8AC000299086D496D009A2C
:1033D00000FB0120009002980068D0F8F0006FF325
:1033E0008F00009940EA810002990968C1F8F00055
:1033F00002980068D0F8F00020F47C10029A11685E
:10340000926D40EA0240C1F8F0000298816D009888
:1034100000EB4100009002980068D0F8C0006FF304
:103420008F00009940EA810002990968C1F8C00044
:1034300002980068D0F8C00020F47C10029A11684D
:10344000D26D40EA0240C1F8C00002980068D0F88E
:10345000C00020F07C50029A1168126E40EA0260AF
:10346000C1F8C00002994A6B4AF60040C4F200005D
:1034700000EB8200C86602998A6BC86E00EB82007E
:1034800008670299CA6B086F00EBC200486702998F
:103490000A6C4B6C486F5A4300EB820088670299B4
:1034A0008A6CCB6C886F5A4300EB8200C867029924
:1034B0000A6D4B6DC86F5A4300EB8200C1F8800063
:1034C00002998A6DD1F8800000EBC200C1F8840037
:1034D0000299CA6D8B6ED1F884005A4300EB8200CA
:1034E000C1F8880002990A6E8B6ED1F888005A43A1
:1034F00000EB8200C1F890000298D0F890004DF2E5
:10350000FD31C4F2000188420FD3FFE70299D1F8E0
:103510009C0040F02000C1F89C000299032081F833
:10352000980001208DF80F0017E00298C06E0190FE
:10353000FFE701980299D1F89010884208D2FFE77E
:10354000019900200860FFE7019804300190F0E73E
:10355000FFE700208DF80F00FFE79DF80F0004B093
:10356000704700000000000088B0079006910592A7
:1035700004930698406848B9FFE706980168826896
:103580000069104340EA8140039009E00698016811
:10359000826800691043084340F080400390FFE7D1
:1035A0000698D0F820C0C16842698369C06940EAC2
:1035B0000C601843104340EA014002900798826E65
:1035C000D0F884000499514300EB810001900398E6
:1035D00001990860019804300190029801990860EF
:1035E00001980430019000200090FFE700980699B0
:1035F000CA6842F63C51C0F60201895C88420DD28D
:10360000FFE7059800994058019908600198043037
:103610000190FFE7009804300090E7E708B070479A
:1036200085B08DED030ACDED020A8DED011A9DEDF9
:10363000010A9DED021AB4EE410AF1EE10FA03DA26
:10364000FFE70398049049E09DED010A9DED021A01
:1036500030EE410A8DED000A9DED030A9DED011A41
:10366000B4EE410AF1EE10FA15DDFFE7FFE79DED3C
:10367000001A9DED030A30EE410A8DED030AFFE7C3
:103680009DED030A9DED011AB4EE410AF1EE10FA28
:10369000EDDCFFE71FE09DED030A9DED021AB4EE9D
:1036A000410AF1EE10FA15DAFFE7FFE79DED001A87
:1036B0009DED030A30EE010A8DED030AFFE79DED53
:1036C000030A9DED021AB4EE410AF1EE10FAEDDBA9
:1036D000FFE7FFE7FFE703980490FFE79DED040A8B
:1036E00005B070470000000084B08DED030A9DED29
:1036F000030AB6EE001A20EE010A8DED020A0398C5
:10370000019001980090009945F68620C5F6377023
:10371000A0EB61000090009801909DED011A9DEDD5
:10372000020A20EE012ABFEE080AA2EE010A20EEEC
:10373000410A8DED010A9DED010A04B070470000B9
:1037400084B002900191ADF80220029828B9FFE7F9
:103750004FF6FF70ADF80E0021E0FFE70198411E23
:103760000191B8B1FFE70298411C029100788DF8F1
:103770000100BDF802109DF801004840C2B243F2BA
:10378000D060C0F6020030F8120080EA1120ADF8D7
:103790000200E3E7BDF80200ADF80E00FFE7BDF858
:1037A0000E0004B07047000083B0029001918DF8C4
:1037B0000320FFE70198411E019198B1FFE79DF8B2
:1037C000030002994A1C0292097848408DF80200D1
:1037D0009DF8021042F62C40C0F60200405C8DF8C5
:1037E0000300E7E79DF8030003B070470000000006
:1037F00080B584B04EF60000C1F6F1700068039009
:103800004EF60400C1F6F170006802904EF6080012
:10381000C1F6F17000680190019903980844039083
:10382000039888B1FFE7039840F2D471C2F2000117
:103830000091023108220EF013FA00990298123119
:1038400004220EF00DFAFFE704B080BD0000000076
:1038500080B586B004900391029200200090FFE7AB
:10386000049890F85C00012804D1FFE702208DF84D
:1038700017005BE00499012081F85C00FFE7FFE797
:103880000498FDF705FA8DF807009DF80700E0BBE6
:10389000FFE70498006E40F0020020F4885004997D
:1038A0000866049800680399029A0FF0F5FAFFE79A
:1038B000049800680FF0D4F8F0B1FFE700980130E9
:1038C000009000984FF60001C2F2C351884212D313
:1038D000FFE70498006E40F0100020F00200049909
:1038E0000866FFE70499002081F85C00FFE70120EB
:1038F0008DF817001AE0DBE70498006E40F0010035
:1039000020F002000499086605E00499086E40F072
:1039100010000866FFE7FFE70499002081F85C00CB
:10392000FFE79DF807008DF81700FFE79DF81700E7
:1039300006B080BD0000000080B5AAB02890279195
:1039400000208DF89B002798006808B1FFE7FFE78B
:10395000FFE7289890F85C00012804D1FFE70220D7
:103960008DF8A7002DE12899012081F85C00FFE780
:10397000FFE70020219022902898006842F2000181
:10398000C4F20201884206D1FFE742F20010C4F2FD
:103990000200099002E000200990FFE7099878B939
:1039A000FFE72899086E40F020000866FFE7289995
:1039B000002081F85C00FFE701208DF8A70000E1FE
:1039C00009980FF085F80890289800680FF080F8A3
:1039D000002840F0E280FFE70898002840F0DD80F2
:1039E000FFE728980168012042F20002C4F20202B7
:1039F000914207900CD0FFE7289800684DF60071BF
:103A0000CBF6FD710844B0FA80F040090790FFE75B
:103A10000798C10746F20030C5F6020000291CBF16
:103A200042F20030C4F20200259027980068002876
:103A30005ED0FFE72598806820F4404027994968C8
:103A400008432599886028980168012042F2000205
:103A5000C4F20202914206900CD0FFE72898006859
:103A60004DF60071CBF6FD710844B0FA80F04009C4
:103A70000690FFE70698C10746F20030C5F602003F
:103A800000291CBF42F20030C4F2020042F20031B1
:103A9000C4F20201884212D1FFE742F20000C4F2F0
:103AA00002000EF0FDFF049042F20010C4F202008A
:103AB0000EF0F6FF014604980843059007E046F231
:103AC0000000C5F602000EF0EBFF0590FFE7059839
:103AD00068B9FFE72598806840F61F718843279AE8
:103AE000116892681143084325998860FFE753E005
:103AF0002599886820F44040886028980168012052
:103B000042F20002C4F20202914203900CD0FFE79D
:103B1000289800684DF60071CBF6FD710844B0FAA4
:103B200080F040090390FFE70398C10746F2003098
:103B3000C5F6020000291CBF42F20030C4F20200A8
:103B400042F20031C4F20201884212D1FFE742F290
:103B50000000C4F202000EF0A3FF019042F2001038
:103B6000C4F202000EF09CFF014601980843029047
:103B700007E046F20000C5F602000EF091FF029049
:103B8000FFE7029838B9FFE72599886840F61F7269
:103B900090438860FFE7FFE708E02899086E40F04F
:103BA0002000086601208DF89B00FFE7FFE72899B9
:103BB000002081F85C00FFE79DF89B008DF8A700CE
:103BC000FFE79DF8A7002AB080BD000000000000BC
:103BD00080B5CEB03A90399100208DF8E300359051
:103BE0003A9890F84400012801D1FFE70BE03A9899
:103BF000006846F20001C5F60201884201D1FFE7E4
:103C000000E0FFE7FFE73998C0680021C4F2FF71C8
:103C1000884201D0FFE71EE03A98006842F20001B6
:103C2000C4F20201884201D1FFE7FFE73A98006839
:103C300042F20011C4F20201884201D1FFE7FFE71E
:103C40003A98006846F20001C5F60201884201D1A7
:103C5000FFE7FFE7FFE7FFE73A9890F85C000128ED
:103C600005D1FFE702208DF8EF0000F043BE3A993E
:103C7000012081F85C00FFE7FFE73A9800680EF04A
:103C80001FFF002840F02286FFE73998C078000621
:103C9000002837D4FFE73A98006846F20001C5F6DD
:103CA000020188422DD0FFE739980068000330B93F
:103CB000FFE739980068C0F38460329015E03998C6
:103CC000006890FAA0F04C904C9820B9FFE72020B3
:103CD0008DF8370105E04C98B0FA80F08DF8370187
:103CE000FFE79DF837013290FFE7329800F01F019F
:103CF000012000FA01F23A980168C8691043C861CE
:103D0000FFE7FFE73A98006839990A6849680EF0BA
:103D10001BFF3A9800680EF0D3FE34903A98006882
:103D20000EF096FE33903498002840F05A82FFE758
:103D30003398002840F05582FFE73A980068399A96
:103D4000116892680EF068FF3A98006846F2000128
:103D5000C5F6020188420BD1FFE7399840693A99CC
:103D60000968C96801F0180189088840379038E06F
:103D700041F20000C5F60040006800F07040B0F16C
:103D8000805F0BD1FFE7399840693A990968C968A3
:103D900001F01C014908884031901FE03A98006802
:103DA000C068C00600280BD4FFE7399840693A99EB
:103DB0000968C96801F01C014908884030900AE090
:103DC000399840693A990968C96801F010014908B1
:103DD00088403090FFE730983190FFE73198379076
:103DE000FFE739980069042841D0FFE73A98006856
:103DF00039990A680969379B0EF096FF3A9800686E
:103E000046F20001C5F60201884215D1FFE73A9853
:103E10000068399A1169D2690EF0D6FF3A980068A5
:103E2000399A116992F82020013AB2FA82F25209C5
:103E300052060EF0A9FF19E03A980068399A116904
:103E400092F82120013AB2FA82F25209D2070EF01A
:103E5000DBFF3A980068399A1169127E013AB2FA8A
:103E600082F25209D2020EF04BFFFFE7B8E13A9816
:103E7000006846F20001C5F60201884240F0668102
:103E8000FFE73A98006800210EF0D2FD000348B920
:103E9000FFE73A98006800210EF0CAFDC0F3846085
:103EA0002F9018E03A98006800210EF0C1FD90FABA
:103EB000A0F04A904A9820B9FFE720208DF82F0102
:103EC00005E04A98B0FA80F08DF82F01FFE79DF8E1
:103ED0002F012F90FFE72F982E903998006800034C
:103EE00030B9FFE739980068C0F384602D9015E081
:103EF0003998006890FAA0F04890489820B9FFE7F8
:103F000020208DF8270105E04898B0FA80F08DF860
:103F10002701FFE79DF827012D90FFE72E982D99A7
:103F2000884207D1FFE73A980068002211460EF058
:103F30008BFFFFE73A98006801210EF079FD00033E
:103F400048B9FFE73A98006801210EF071FDC0F30F
:103F500084602C9018E03A98006801210EF068FD0A
:103F600090FAA0F04690469820B9FFE720208DF8FF
:103F70001F0105E04698B0FA80F08DF81F01FFE7B9
:103F80009DF81F012C90FFE72C982B903998006822
:103F9000000330B9FFE739980068C0F384602A90C5
:103FA00015E03998006890FAA0F04490449820B940
:103FB000FFE720208DF8170105E04498B0FA80F063
:103FC0008DF81701FFE79DF817012A90FFE72B985E
:103FD0002A99884207D1FFE73A9800680121002218
:103FE0000EF032FFFFE73A98006802210EF020FD44
:103FF000000348B9FFE73A98006802210EF018FD67
:10400000C0F38460299018E03A98006802210EF00D
:104010000FFD90FAA0F04290429820B9FFE72020CF
:104020008DF80F0105E04298B0FA80F08DF80F018D
:10403000FFE79DF80F012990FFE72998289039980C
:104040000068000330B9FFE739980068C0F3846066
:10405000279015E03998006890FAA0F040904098B9
:1040600020B9FFE720208DF8070105E04098B0FA5D
:1040700080F08DF80701FFE79DF807012790FFE723
:1040800028982799884207D1FFE73A9800680221CB
:1040900000220EF0D9FEFFE73A98006803210EF0E7
:1040A000C7FC000348B9FFE73A98006803210EF007
:1040B000BFFCC0F38460269018E03A9800680321A2
:1040C0000EF0B6FC90FAA0F03E903E9820B9FFE7C3
:1040D00020208DF8FF0005E03E98B0FA80F08DF8C2
:1040E000FF00FFE79DF8FF002690FFE72698259048
:1040F00039980068000330B9FFE739980068C0F3C9
:104100008460249015E03998006890FAA0F03C9003
:104110003C9820B9FFE720208DF8F70005E03C9897
:10412000B0FA80F08DF8F700FFE79DF8F7002490D3
:10413000FFE725982499884207D1FFE73A9800685D
:10414000032100220EF080FEFFE748E03A98006865
:10415000006E00F0F84039990968B0EB816F07D123
:10416000FFE73A980168086E20F000400866FFE714
:104170003A980068406E00F0F84039990968B0EB51
:10418000816F07D1FFE73A980168486E20F0004040
:104190004866FFE73A980068806E00F0F840399969
:1041A0000968B0EB816F07D1FFE73A980168886E24
:1041B00020F000408866FFE73A980068C06E00F083
:1041C000F84039990968B0EB816F07D1FFE73A9859
:1041D0000168C86E20F00040C866FFE7FFE7FFE710
:1041E000FFE73A9800680EF053FC002840F06D831A
:1041F000FFE73A980068399A1168D2680EF028FDF6
:104200003998C0680021C4F2FF71884240F0F981FA
:10421000FFE73A980068239042F20001C4F20201DD
:10422000884240F0A480FFE7399800680221C0F27C
:104230003041884203D1FFE70120229094E0399871
:1042400000680421C0F66001884205D1FFE74020E4
:10425000C1F62010219084E0399800680821C0F64A
:104260009041884205D1FFE78020C1F65050209050
:1042700074E0399800681021C1F2C001884206D16B
:10428000FFE740F20010C2F280101F9063E03998FF
:1042900000682021C1F2F041884206D1FFE740F2D8
:1042A0000020C2F2B0501E9052E03998006840F2EF
:1042B0000041C2F60021884206D1FFE740F6000027
:1042C000C2F630601D9040E03998006840F6000169
:1042D000C2F63061884206D1FFE741F20000C3F226
:1042E00060201C902EE03998006841F20001C3F272
:1042F0006021884206D1FFE742F20000C3F29060DD
:104300001B901CE0399800680021C4F221318842DA
:1043100005D1FFE70020C4F252701A900CE03998E2
:1043200001680022C4F684320020914204BF0020BC
:10433000C4F6B8701A90FFE71A981B90FFE71B9815
:104340001C90FFE71C981D90FFE71D981E90FFE74B
:104350001E981F90FFE71F982090FFE7209821905C
:10436000FFE721982290FFE72298199044E13A98BC
:10437000006842F20011C4F20201884240F09480C9
:10438000FFE7399800680221C0F23041884203D12A
:10439000FFE70120189084E0399800680421C0F6F6
:1043A0006001884205D1FFE74020C1F62010179038
:1043B00074E0399800680821C0F69041884205D120
:1043C000FFE78020C1F65050169064E039980068ED
:1043D0001021C1F2C001884206D1FFE740F200106F
:1043E000C2F28010159053E0399800682021C1F284
:1043F000F041884206D1FFE740F20020C2F2B050FF
:10440000149042E03998006840F20041C2F6002161
:10441000884206D1FFE740F60000C2F630601390F4
:1044200030E03998006840F60001C2F630618842F9
:1044300006D1FFE741F20000C3F2602012901EE0B7
:104440003998006841F20001C3F26021884206D128
:10445000FFE742F20000C3F2906011900CE039983F
:1044600001680022C4F684320020914204BF00207B
:10447000C4F6B8701190FFE711981290FFE71298F8
:104480001390FFE713981490FFE714981590FFE737
:1044900015981690FFE716981790FFE71798189051
:1044A000FFE718981090A4E03A98006846F20001DF
:1044B000C5F60201884240F09680FFE7399800680F
:1044C0000221C0F23041884203D1FFE701200F9062
:1044D00086E0399800680421C0F66001884205D161
:1044E000FFE74020C1F620100E9076E03998006872
:1044F0000821C0F69041884205D1FFE78020C1F62F
:1045000050500D9066E0399800681021C1F2C0014A
:10451000884206D1FFE740F20010C2F280100C90F2
:1045200055E0399800682021C1F2F041884206D157
:10453000FFE740F20020C2F2B0500B9044E03998FF
:10454000006840F20041C2F60021884206D1FFE730
:1045500040F60000C2F630600A9032E039980068F8
:1045600040F60001C2F63061884206D1FFE741F211
:104570000000C3F26020099020E03998006842F200
:104580000001C3F29061884206D1FFE744F20000C7
:10459000C3F6C02008900EE03998016844F200028A
:1045A000C3F6C0220020914204BF48F20000C3F6C7
:1045B000F0600890FFE708980990FFE709980A90D3
:1045C000FFE70A980B90FFE70B980C90FFE70C9819
:1045D0000D90FFE70D980E90FFE70E980F90FFE704
:1045E0000F98079002E000200790FFE707981090CF
:1045F000FFE710981990FFE7239819990EF0D4FA65
:10460000FFE73998C0780006002840F15D81FFE798
:104610003A980168012042F20002C4F2020291427B
:1046200006900CD0FFE73A9800684DF60071CBF683
:10463000FD710844B0FA80F040090690FFE7069843
:10464000C10746F20030C5F6020000291CBF42F245
:104650000030C4F202000EF0DBF936903A9801689F
:104660004FF0010042F20002C4F2020291420590B2
:104670000CD0FFE73A9800684DF60071CBF6FD715B
:104680000844B0FA80F040090590FFE70598C1079B
:1046900046F20030C5F6020000291CBF42F200308D
:1046A000C4F2020042F20031C4F20201884212D187
:1046B000FFE742F20000C4F202000EF0E9F90390B5
:1046C00042F20010C4F202000EF0E2F90146039833
:1046D0000843049007E046F20000C5F602000EF021
:1046E000D7F90490FFE70498002840F0E380FFE743
:1046F000399800680021CCF25271884255D1FFE709
:104700009DF8DA00000600284FD4FFE73A980068C9
:1047100046F20001C5F60201884245D1FFE73A980A
:104720000168012042F20002C4F2020291420290AA
:104730000CD0FFE73A9800684DF60071CBF6FD719A
:104740000844B0FA80F040090290FFE70298C107E0
:1047500046F20030C5F6020000291CBF42F20030CC
:10476000C4F20200369941F400010EF0B9FA40F2A9
:10477000F460C2F2000000684FEA901042F6635104
:10478000C0F23E51A0FB01104FEA90114FF0020021
:1047900000EB41003590FFE7359820B1FFE73598F1
:1047A00001383590F8E7FFE783E039980068002189
:1047B000CCF22131884238D1FFE79DF8DB00C007F9
:1047C00098BBFFE73A98006846F20001C5F602017F
:1047D000884229D1FFE73A980168012042F200029D
:1047E000C4F20202914201900CD0FFE73A980068AF
:1047F0004DF60071CBF6FD710844B0FA80F0400927
:104800000190FFE70198C10746F20030C5F60200AB
:1048100000291CBF42F20030C4F20200369941F078
:1048200080710EF05DFAFFE742E0399800680021E0
:10483000CCF68431884239D1FFE79DF8DA00400692
:10484000002833D4FFE73A98006846F20001C5F625
:104850000201884229D1FFE73A980168012042F21B
:104860000002C4F20202914200900CD0FFE73A9895
:1048700000684DF60071CBF6FD710844B0FA80F087
:1048800040090090FFE70098C10746F20030C5F6E6
:10489000020000291CBF42F20030C4F20200369927
:1048A00041F480010EF01CFAFFE700E0FFE7FFE7AC
:1048B000FFE708E03A99086E40F020000866012002
:1048C0008DF8E300FFE7FFE7FFE708E03A99086E9D
:1048D00040F02000086601208DF8E300FFE7FFE7C5
:1048E0003A99002081F85C00FFE79DF8E3008DF81D
:1048F000EF00FFE79DF8EF004EB080BD0000000024
:1049000081B0009001B0704781B0009001B0704755
:1049100081B0009001B0704710B590B00E900020AB
:104920008DF837000A900E9820B9FFE701208DF826
:104930003F006EE20E98006940B1FFE70E9890F8D4
:104940002000012801D1FFE7FFE7FFE70E98006E86
:1049500050B9FFE70E9800F063FA0E990020486600
:104960000E9981F85C00FFE70E9800680EF080F861
:1049700028B1FFE70E9800680EF012F8FFE70E98D6
:1049800000680EF095F8E8B9FFE70E9800680EF0A1
:104990002FF840F2F460C2F200000068800942F68D
:1049A0006351C0F23E51A0FB0101012000EB9110C8
:1049B0000A90FFE70A9820B1FFE70A9801380A90A9
:1049C000F8E7FFE70E9800680EF072F870B9FFE79D
:1049D0000E99086E40F0100008660E99486E40F07F
:1049E0000100486601208DF83700FFE70E98006847
:1049F0000EF066F80B900E98006EC006002800F1CD
:104A0000FA81FFE70B98002840F0F581FFE70E9848
:104A1000006E40F0020020F480700E9908660E9837
:104A200000680EF035F8002870D1FFE70E98016895
:104A3000012042F20002C4F20202914207900CD01F
:104A4000FFE70E9800684DF60071CBF6FD71084443
:104A5000B0FA80F040090790FFE70798C10746F2D7
:104A60000030C5F6020000291CBF42F20030C4F23B
:104A7000020042F20031C4F20201884212D1FFE783
:104A800042F20000C4F202000EF002F8059042F279
:104A90000010C4F202000DF0FBFF01460598084328
:104AA000069007E046F20000C5F602000DF0F0FFA8
:104AB0000690FFE7069840BBFFE70E9801680120CB
:104AC00042F20002C4F20202914204900CD0FFE7CD
:104AD0000E9800684DF60071CBF6FD710844B0FAEF
:104AE00080F040090490FFE70498C10746F20030C7
:104AF000C5F6020000291CBF42F20030C4F20200D9
:104B00000E9949680EF0DCF8FFE7FFE70E980068A1
:104B100046F20001C5F6020188423AD1FFE70E9A3B
:104B2000517ED06B40EA41319068D26811430391C5
:104B3000082803D1FFE7002002901DE00E9880684E
:104B40000C2803D1FFE70420019012E00E98806842
:104B50001C2803D1FFE70820009007E00E98816829
:104B60000020182908BF1C200090FFE70098019042
:104B7000FFE701980290FFE70398029901F00C010A
:104B800040EA41000E9991F8201040EA01400C9053
:104B90000CE00E994A7EC86B40EA42308A681043A6
:104BA00091F8201040EA01400C90FFE70E9890F831
:104BB000200001280BD1FFE70E98416A0020CFF6B4
:104BC000FE7000EB41410C9808430C90FFE70E98F3
:104BD000806A50B1FFE70E99886AC96A00F478705C
:104BE00001430C9808430C90FFE70E98006846F2CA
:104BF0000001C5F60201884218D1FFE70E9800684F
:104C0000C06844F20701CFF6F07108400C990843E0
:104C10000E990968C8600E980068006920F040602D
:104C20000E9A1168526B104308610DE00E980068EF
:104C3000C0684CF20301CFF6F07108400C990843AC
:104C40000E990968C860FFE70E9800680DF038FFFC
:104C500009900E9800680DF0FBFE08900998002856
:104C600040F0A880FFE70898002840F0A380FFE705
:104C70000E98006846F20001C5F60201884209D18B
:104C8000FFE70E99087E91F83810800340EA410052
:104C90000C9006E00E98017E006B40EA81300C908B
:104CA000FFE70E980068C06844F2030188430C993E
:104CB00008430E990968C8600E9890F844000128CE
:104CC00059D1FFE70E98006846F20001C5F60201CF
:104CD000884201D1FFE700E0FFE70E98806A20B12B
:104CE000FFE70E98C06A08B9FFE7FFE70E98006873
:104CF00046F20001C5F6020188421BD1FFE70E987B
:104D0000006800694FF61E01CFF6004100EA01027B
:104D10000E9B1968986CD3F84CE0D3F850C040EA69
:104D20000E0040EA0C005B6D1843104340F0010098
:104D300008611FE00E98006800694FF61E01CFF66B
:104D4000004100EA01020E9B19689C6CD3F84CE00C
:104D5000D3F850C00020CFF6FF7000EB044040EACB
:104D60000E0040EA0C005B6D1843104340F0010058
:104D70000861FFE706E00E980168086920F001006D
:104D80000861FFE70E980068006920F070400E9AF5
:104D90001168126C104308610E98006846F2000119
:104DA000C5F60201884204D0FFE70E98FBF7F0FD3C
:104DB000FFE7FFE70E98006901280CD1FFE70E9886
:104DC0000068006B20F00F000E9A1168D269013A5A
:104DD0001043086306E00E980168086B20F00F008E
:104DE0000863FFE70E98006E40F0010020F002001B
:104DF0000E99086608E00E99086E40F010000866EB
:104E000001208DF83700FFE79DF837008DF83F004F
:104E1000FFE79DF83F0010B010BD0000000000004B
:104E200080B5BAB0399000203890379036903590E0
:104E3000349006A8B821FBF751FC3998006842F27B
:104E40000001C4F2020188426BD1FFE70020079005
:104E50004FF4002006904FF400302E9006A807F083
:104E60004BFC18B1FFE7FEF79FF9FFE7FFE744F2BD
:104E7000D840C5F60200016841F0200101600068D9
:104E800000F0200005900598FFE7FFE744F2E040BE
:104E9000C5F60200016841F004010160006800F0FD
:104EA000040004900498FFE710203490032035900C
:104EB00000200190369040F60000C5F6020034A9AB
:104EC00004F016FD019947F23440C2F2000002904E
:104ED00040F2A042C4F202020260092242608160F4
:104EE000C1604FF4806202614FF4006242614FF48E
:104EF000005282614FF48072C2610162416202F02D
:104F000067FA18B1FFE7FEF74FF9FFE7FFE73998B7
:104F100047F23441C2F20001816539988863FFE7A6
:104F200056E03998006846F20001C5F60201884251
:104F30004DD1FFE7002007904FF4002006904FF47A
:104F400000302E9006A807F0D7FB18B1FFE7FEF758
:104F50002BF9FFE7FFE744F2E040C5F602000168E5
:104F600041F080710160006800F080700390039848
:104F7000FFE747F2AC40C2F20000009045F2084162
:104F8000C5F6020101601121416000218160C1600C
:104F90004FF4806202614FF4006242614FF40052AC
:104FA00082614FF48072C261016202F011FA18B19D
:104FB000FFE7FEF7F9F8FFE7FFE7399847F2AC4162
:104FC000C2F20001816539988863FFE7FFE7FFE7D8
:104FD0003AB080BD0000000080B588B00690059111
:104FE000049206980168012042F20002C4F2020213
:104FF000914201900CD0FFE7069800684DF60071D1
:10500000CBF6FD710844B0FA80F040090190FFE74B
:105010000198C10746F20030C5F6020000291CBF06
:1050200042F20030C4F202000DF0FAFC0290069841
:1050300000680DF045FD002840F0C680FFE7FFE75F
:10504000069890F85C00012804D1FFE702208DF853
:105050001F00C2E00699012081F85C00FFE7FFE72E
:10506000029848B1FFE70298052805D0FFE70298AB
:10507000092840F09E80FFE70698FBF76DFE8DF84B
:105080000F009DF80F00002840F08B80FFE7069886
:10509000006E40F4807040F601618843069908660E
:1050A0000698006842F20011C4F20201884206D15B
:1050B000FFE742F20000C4F20200009003E006980D
:1050C00000680090FFE7009806990968884203D0BD
:1050D000FFE7029830B9FFE70699086E20F48010C8
:1050E0000866FFE70698006EC004002806D5FFE7B3
:1050F0000699486E20F00600486603E006990020F5
:105100004866FFE70698816D40F67130C0F60000F2
:10511000C8630698816D40F67940C0F600000864C7
:105120000698816D40F64940C0F60000C8640698B4
:1051300001681C200860FFE70699002081F85C00E8
:10514000FFE706980168486840F01000486006983C
:10515000006846F20001C5F6020188420CD1FFE763
:105160000699086891F8381049000DF0C5FC0698BA
:1051700000680DF031FC05E006990868096B0DF038
:10518000D3FCFFE706980168806D4031059A049BC7
:1051900002F0CEFD8DF80F00069800680DF0F4FCCB
:1051A00006E0FFE70699002081F85C00FFE7FFE7D3
:1051B00009E001208DF80F00FFE70699002081F833
:1051C0005C00FFE7FFE703E002208DF80F00FFE738
:1051D0009DF80F008DF81F00FFE79DF81F0008B035
:1051E00080BD00000000000080B58AB0089004F087
:1051F0006BFD0490089828B9FFE701208DF827007F
:1052000000F0AABC089890F8350002280ED0FFE7FD
:10521000089980204865FFE70899002081F834004C
:10522000FFE701208DF8270000F096BC0898016880
:1052300001201022C4F202029142039000F0A380E8
:10524000FFE70898016801202822C4F20202914277
:10525000039000F09880FFE7089801680120402241
:10526000C4F202029142039000F08D80FFE708989B
:10527000016801205822C4F202029142039000F01A
:105280008280FFE70898016801207022C4F20202C0
:105290009142039077D0FFE70898016801208822A7
:1052A000C4F20202914203906DD0FFE708980168B2
:1052B0000120A022C4F202029142039063D0FFE7D2
:1052C000089801680120B822C4F2020291420390BA
:1052D00059D0FFE708980168012040F21042C4F25B
:1052E0000202914203904ED0FFE708980168012026
:1052F00040F22842C4F202029142039043D0FFE7F9
:1053000008980168012040F24042C4F20202914232
:10531000039038D0FFE708980168012040F2584216
:10532000C4F20202914203902DD0FFE70898016871
:10533000012040F27042C4F202029142039022D056
:10534000FFE708980168012040F28842C4F2020297
:105350009142039017D0FFE708980168012040F2BE
:10536000A042C4F20202914203900CD0FFE70898D9
:1053700000684FF64831CBF6FD710844B0FA80F072
:1053800040090390FFE70398C00780B1FFE7089842
:105390000168086820F01E000860089801684869E4
:1053A00020F08000486108980068059009E008989E
:1053B0000168086820F00E000860089800680590F1
:1053C000FFE70898016801201022C4F2020291420E
:1053D000029000F00381FFE708980168012028226D
:1053E000C4F202029142029000F0F880FFE70898B0
:1053F000016801204022C4F202029142029000F0B2
:10540000ED80FFE70898016801205822C4F20202EB
:105410009142029000F0E280FFE7089801680120C5
:105420007022C4F202029142029000F0D780FFE79E
:105430000898016801208822C4F202029142029079
:1054400000F0CC80FFE7089801680120A022C4F298
:1054500002029142029000F0C180FFE708980168C3
:105460000120B822C4F202029142029000F0B680FC
:10547000FFE708980168012040F21042C4F20202DE
:105480009142029000F0AA80FFE70898016801208D
:1054900040F22842C4F202029142029000F09E8043
:1054A000FFE708980168012040F24042C4F202027E
:1054B0009142029000F09280FFE708980168012075
:1054C00040F25842C4F202029142029000F08680FB
:1054D000FFE708980168012040F27042C4F202021E
:1054E000914202907AD0FFE708980168012040F2CB
:1054F0008842C4F20202914202906FD0FFE70898FE
:105500000168012040F2A042C4F2020291420290DE
:1055100064D0FFE708980168012040F2B842C4F265
:1055200002029142029059D0FFE7089801680120D9
:1055300045F20842C5F60202914202904ED0FFE7C2
:1055400008980168012045F21C42C5F6020291420A
:10555000029043D0FFE708980168012045F23042ED
:10556000C5F602029142029038D0FFE70898016820
:10557000012045F24442C5F60202914202902DD02C
:10558000FFE708980168012045F25842C5F602027B
:105590009142029022D0FFE708980168012045F26D
:1055A0006C42C5F602029142029017D0FFE70898BC
:1055B0000168012045F28042C5F602029142029044
:1055C0000CD0FFE7089800684AF66C31CAF2FD710A
:1055D0000844B0FA80F040090290FFE70298C00743
:1055E00038B1FFE70898016E086820F48070086001
:1055F000FFE7089800681021C4F20201884200F019
:105600008180FFE7089800682821C4F202018842DF
:1056100078D0FFE7089800684021C4F20201884270
:1056200070D0FFE7089800685821C4F20201884250
:1056300068D0FFE7089800687021C4F20201884230
:1056400060D0FFE7089800688821C4F20201884210
:1056500058D0FFE708980068A021C4F202018842F0
:1056600050D0FFE708980068B821C4F202018842D0
:1056700048D0FFE70898006840F21041C4F20201E8
:1056800088423FD0FFE70898006840F22841C4F202
:105690000201884236D0FFE70898006840F2404196
:1056A000C4F2020188422DD0FFE70898006840F25A
:1056B0005841C4F20201884224D0FFE708980068EC
:1056C00040F27041C4F2020188421BD0FFE7089803
:1056D000006840F28841C4F20201884212D0FFE71C
:1056E0000898006840F2A041C4F20201884209D043
:1056F000FFE70898006840F2B841C4F2020188420E
:1057000007D1FFE708980168086820F001000860E9
:1057100006E008980168086820F001000860FFE7CB
:10572000FFE705980068C007C8B1FFE704F0CCFAAE
:105730000499401A062811D3FFE7089920204865EC
:105740000899032081F83500FFE70899002081F8C7
:105750003400FFE701208DF82700FDE1E1E708981C
:10576000016801201022C4F202029142019000F06F
:10577000A380FFE70898016801202822C4F20202F2
:105780009142019000F09880FFE70898016801209D
:105790004022C4F202029142019000F08D80FFE7A6
:1057A0000898016801205822C4F202029142019037
:1057B00000F08280FFE70898016801207022C4F29F
:1057C00002029142019077D0FFE70898016801201A
:1057D0008822C4F20202914201906DD0FFE708983E
:1057E00001680120A022C4F202029142019063D01C
:1057F000FFE7089801680120B822C4F20202914232
:10580000019059D0FFE708980168012040F210424A
:10581000C4F20202914201904ED0FFE7089801685D
:10582000012040F22842C4F202029142019043D08A
:10583000FFE708980168012040F24042C4F20202EA
:105840009142019038D0FFE708980168012040F2AA
:105850005842C4F20202914201902DD0FFE708980D
:105860000168012040F27042C4F2020291420190AC
:1058700022D0FFE708980168012040F28842C4F274
:1058800002029142019017D0FFE7089801680120B9
:1058900040F2A042C4F20202914201900CD0FFE714
:1058A000089800684FF64831CBF6FD710844B0FA0D
:1058B00080F040090190FFE70198C00760B1FFE761
:1058C0000898806D07900898C06D00F01F013F2078
:1058D0008840079988600BE00898806D06900898CA
:1058E000C06D00F01F010120884006994860FFE765
:1058F0000898016801201022C4F20202914200902F
:1059000000F00381FFE70898016801202822C4F213
:1059100002029142009000F0F880FFE708980168C9
:1059200001204022C4F202029142009000F0ED807A
:10593000FFE70898016801205822C4F20202914250
:10594000009000F0E280FFE70898016801207022D3
:10595000C4F202029142009000F0D780FFE708985D
:10596000016801208822C4F202029142009000F0F6
:10597000CC80FFE7089801680120A022C4F202024F
:105980009142009000F0C180FFE708980168012073
:10599000B822C4F202029142009000F0B680FFE704
:1059A00008980168012040F21042C4F202029142BC
:1059B000009000F0AA80FFE708980168012040F2FB
:1059C0002842C4F202029142009000F09E80FFE75C
:1059D00008980168012040F24042C4F2020291425C
:1059E000009000F09280FFE708980168012040F2E3
:1059F0005842C4F202029142009000F08680FFE714
:105A000008980168012040F27042C4F202029142FB
:105A100000907AD0FFE708980168012040F28842A0
:105A2000C4F20202914200906FD0FFE7089801682B
:105A3000012040F2A042C4F202029142009064D0E0
:105A4000FFE708980168012040F2B842C4F2020260
:105A50009142009059D0FFE708980168012045F273
:105A60000842C5F60202914200904ED0FFE7089826
:105A70000168012045F21C42C5F6020291420090E5
:105A800043D0FFE708980168012045F23042C5F68F
:105A900002029142009038D0FFE708980168012087
:105AA00045F24442C5F60202914200902DD0FFE734
:105AB00008980168012045F25842C5F60202914259
:105AC000009022D0FFE708980168012045F26C425F
:105AD000C5F602029142009017D0FFE708980168CE
